:1000000051C46BC46AC469C468C444C566C465C4C9
:1000100064C463C462C461C460C45FC45EC41202C9
:100020008100C2C2E7C6EFCEFFDCFEF8FC70F860CC
:10003000F060F060F050F848FCE8FCC8FCD0F8E054
:10004000F0C0E000C0000000010001000101030158
:10005000030103030703070307030703070307015C
:100060000301030103000100001E048100000000E1
:1000700080C020E000F000F800FC20FE34FE14FFF9
:100080000EFF0AFF02FF03FF03FF0BFF13FF32FF08
:1000900062FF32FF76FE34FC3CFC38F8F0F0F0F002
:1000A000E0E0C0C000000000F0FC01FF00FF00FF26
:1000B00000FF03FF68FF00FF00FF78FFB0FF30FF85
:1000C00010FF00FF00FF48FF64FFC0FFC0FFE0FF1C
:1000D000F0FF00FF00FF01FF07FF07FF1FFF3BFFCF
:1000E00063FF64FC0F1F3F7F7CFF78FFF0FF98FFEA
:1000F00008FF00FF02FF00FF00FF02FF00FF82FF7A
:10010000F7FFFFFFFFFFFFFFFFFFFFFFFFFFFFFF07
:10011000FFFFF8FFC7FFDFFFDCFFC0FF607F1C1F92
:1001200000000000000102030707090F1E1F1F1F28
:100130003E3F3E3F7F7F7F7F7F7F7F7F7F7F7F7FD1
:100140007F7F7F7F7F7F7F7F3F3F3F3F1F1F0F0F5F
:100150000F0F03070303010100000000AED5F0A854
:100160003FD300408D142000A1C8DA12813FD9226C
:10017000DB20A4A62EAF10028100C0C0E0E0F8781A
:10018000FCBCFEDCFEFEFFFEFF5EFF9EFFFCFEFCF5
:10019000FEF0FCC0F000C0000000010103030F0FDF
:1001A0001F1F3F3F7F77FF6FFF6FFF7FFF75FF3B95
:1001B0007F3F7F1F3F071F000700C0C0F0F0F8F02F
:1001C000F8F8FC38FCBCFE7CFEFEFFDEFFEEFFDC38
:1001D000FE7CFEF8FCE0F800E00003030F0F1F1F99
:1001E0003F1F3F3B7F77FF6FFF7FFF3F7F1F3F1D1D
:1001F0003F0E1F070F0307000300E0E0F8F8FCFCC8
:10020000FEDCFEAEFFFEFFF6FFF6FFEEFFFCFEF8A3
:10021000FCF0F8C0F080C0008000000003030F0F66
:100220003F3F7F3F7F79FF7AFF7FFF7FFF3B7F3D2F
:100230007F1E3F071F0307000300C0C0E0E0F0700F
:10024000F8B8FCF8FCFCFEFEFFF6FFEEFFDCFEF863
:10025000FCF8FCF0F8C0F000C00007071F1F3F3E8D
:100260007F3B7F77FF7BFF7FFF3E7F3D7F1C3F1FF4
:100270003F0F1F0F1F030F00038008000000000046
:10028000000000000000000000000000000000006E
:10029000000000000000000000000000000000005E
:1002A000008080C0C0C0E0E0E0F0F0F0F8F8F8F8BE
:1002B000FCFCECFCFCFEFE7EFEFE7EFEFEFEFEFE78
:1002C000FEFE7EFC3CFC7CFCFC7CF878F8F870F0D0
:1002D000F0E0E0E0C0C0808000000000000000000E
:1002E000000000000000000000000000000000000E
:1002F00000000000000000000000000000000000FE
:1003000000000000000000000000000000000000ED
:100310000000000080C04060B0709848A47C3E1F80
:100320001F3F1F0F8FEFC7E7C7E3E7E367F8F7D17A
:10033000E0A1D140316061E0E030313151B0E1E124
:10034000F1C283858D621D9365069986858E05872A
:1003500007070F071F1F3FFFFFFFFEFEFCF8F8F027
:10036000E0E0C0808000000000000000000000000D
:10037000000000000000000000000000000000007D
:10038000000000000000000000000000004040608D
:100390003008060113018A250A91060106E1E8FEEC
:1003A000DEFE5E7F7F5F070303010301030303019A
:1003B0000000000000000106000900010101030324
:1003C0008F1F6FBF7FFFFC79D0EFFCF3FFFBFFFDBA
:1003D000FEFE56EE17F9D6FFFFFFDFFFDFFFFFFF40
:1003E000FFFFFFF7EFDFFEFCF8F0E0C08000000049
:1003F00000000000000000000000000000000000FD
:10040000000000000000004000008404413008901B
:10041000002884418002E000B44284108745824F66
:100420000483010000000000000000000000000044
:100430000000000000000000000000001002042B7B
:100440008224D2218005051ADF7F0F0702030303F0
:10045000070F0F141818020D0207ABF6C1C101EF08
:10046000DFDFFFFFFFFFFFFFFFFFFFFFFFFEFCF8E7
:10047000E0C00000000000000000000000000000DC
:100480000000008000806008B0038421805500A82F
:1004900002946AE17AFC7FFA05FA2DDA24082095A5
:1004A00008860802C080000008908000402080007C
:1004B000000200000818100008302C50DE70AB104D
:1004C000C30087844FD0F88820000000000000009F
:1004D0000000000010000800000001010307DF7F9A
:1004E000FFFFFFFFFFFFFFFF7F7FFF7FFFDFFFFFBC
:1004F000FF7FFFFEF8E08000000000000000000029
:10050000C0B05F021000000802010042000822880B
:100510002208A5126D822946B966B9E658431086AD
:10052000A01AC1F6C5EAC570AAD4C008C210C20894
:10053000E18A5080D0004850404060E06090B8E7C9
:100540007D1F770F17252B0460008080C0202000BE
:1005500080C0C08780008000000000000000103FC5
:100560003FFF0D55010F1F9FFCFFFFFEFFFFE10145
:1005700000000103071FFFF8A0000000000000E8D2
:10058000F6FFF8B5D4100000008060004800842217
:100590008801148205D228E7E8FFFCF3FED481200D
:1005A0000112562F1DFE2FFD76FD7F7FFF3FFE259A
:1005B000FE0A772DDA35C512040000008180C040A4
:1005C000C560E0C0E00080800001034B07D5F0EA81
:1005D000FCFDFD5706010100000100002000100095
:1005E0000000000000000000030F8FDF3FFFFFFC52
:1005F000F8E0C080C0E0FE7FFFF800000000F22FAE
:10060000FDFFFFFFFF3D8204000000400520920433
:100610005006A00A450017E81723BF176502984245
:100620003D42A5C7BB047F976DEA7D53E8C552459F
:100630000000010A218A1000802080C8068A7F0FEE
:100640002F5BBF93FFFFFFFEFDFCFFFFFFFFFFFFE0
:10065000FFFFEFFDEA8040000400024100000000BF
:10066000440088C090000800828063D82D5C040399
:10067000070F1F3F3FBEFD21E8BFBE000000000086
:1006800000000000002F0000000007000700001419
:100690007F147F1400242A7F2A1200626408132327
:1006A00000364955225000000503000000001C22BE
:1006B0004100000041221C000014083E08140008FC
:1006C000083E0808000000A06000000808080808AC
:1006D000000060600000002010080402003E514944
:1006E000453E0000427F40000042615149460021E2
:1006F00041454B31001814127F10002745454539FC
:10070000003C4A4949300001710905030036494956
:10071000493600064949291E00003636000000000F
:10072000563600000008142241000014141414145A
:100730000000412214080002015109060032495903
:10074000513E007C1211127C007F49494936003E1F
:1007500041414122007F4141221C007F49494941DA
:10076000007F09090901003E4149497A007F0808D4
:10077000087F0000417F4100002040413F01007F91
:1007800008142241007F40404040007F020C027F5D
:10079000007F0408107F003E4141413E007F09096F
:1007A0000906003E4151215E007F09192946004695
:1007B000494949310001017F0101003F4040403F6C
:1007C000001F2040201F003F4038403F00631408B6
:1007D0001463000708700807006151494543000091
:1007E0007F41410000552A552A55000041417F00B4
:1007F00000040201020400404040404000000102A9
:100800000400002054545478007F48444438003891
:100810004444442000384444487F00385454541819
:1008200000087E0901020018A4A4A47C007F08042B
:1008300004780000447D4000004080847D00007FFB
:10084000102844000000417F4000007C0418047818
:10085000007C0804047800384444443800FC242414
:1008600024180018242418FC007C080404080048FC
:100870005454542000043F444020003C4040207C1D
:10088000001C2040201C003C4030403C004428100C
:100890002844001CA0A0A07C004464544C441414C0
:1008A0001414141411241FBECFE5D2E0DEBFCDBF57
:1008B00010E0A0E6B0E0E2E9F2E102C005900D929E
:1008C000A63FB107D9F721E0A6EFB0E001C01D9225
:1008D000A93CB207E1F728D1DAC492CB3FB7F8942C
:1008E0008091C5019091C601A091C701B091C80146
:1008F00022B708B601FE05C02F3F19F00196A11DD1
:10090000B11D3FBFBA2FA92F982F8827BC01CD0159
:10091000620F711D811D911D43E0660F771F881FB7
:10092000991F4A95D1F70895982F881F8827881F07
:1009300096FD826095FD846094FD886093FD8061E2
:1009400092FD806291FD806490FD80680895C0985A
:10095000C29AB29BFECF82E08A95F1F700C0C09A9E
:1009600085E08A95F1F7000008958EB98BE295E055
:100970009A95F1F700008DB9B29BFECF92E09A955F
:10098000F1F700C08DB9769BF2CF85E08A95F1F73B
:1009900000008FB19FEF9FB9B89A0895C2988FB9A0
:1009A00080EFE3DFB8988EEFE0DF809581700895E7
:1009B000C29AB29BFECF82E08A95F1F700C0C09840
:1009C00082E08A95F1F700C0C298C09A779B0BC06D
:1009D000C29888E78FB980EFC8DFB8988EEFC5DF7F
:1009E00080958170089580E00895CF93C82FAFDF80
:1009F000DFDF8C2FCF91D2CFCF93DF93D82FC62FAD
:100A000080E0F3DF8C2F8770806BC8DF8D2F82959D
:100A10008F708061C3DF8D2F8F70C0DFDF91CF912A
:100A200096CFEF92FF920F931F93CF93DF938C019A
:100A300080E4DBDFE80189918823A9F0805290E00F
:100A400066E070E013D410E000E08458994F7C0118
:100A5000F701E00FF11F8491A1DF0F5F1F4F0630F8
:100A60001105B1F7E8CFDF91CF911F910F91FF9062
:100A7000EF906DCFCF93DF9360E080E0BDDF80E447
:100A8000B4DFC0E0D4E080E089DF2197E1F7DF91B7
:100A9000CF915DCF1F920F920FB60F9211242F931B
:100AA0003F938F939F93AF93BF938091C101909198
:100AB000C201A091C301B091C4013091C00126E0F0
:100AC000230F2D3768F129E8230F0396A11DB11DCF
:100AD0002093C0018093C1019093C201A093C301F0
:100AE000B093C4018091C5019091C601A091C70146
:100AF000B091C8010196A11DB11D8093C5019093CD
:100B0000C601A093C701B093C801BF91AF919F9157
:100B10008F913F912F910F900FBE0F901F901895BE
:100B20000296A11DB11DD4CFCF93DF93CDB7DEB711
:100B3000A1970FB6F894DEBF0FBECDBF83E08ABD8C
:100B400083BF789489B7826089BF80E48CBD8FEFC2
:100B50008DBD97EC90BF96E896B92FEF30E742E055
:100B6000215030404040E1F700C00000C09AC29AD6
:100B7000BA9AB89A8FB98AE28DB980EF8EB918DF28
:100B80008B87811127C0AADE7B836A831AE0C12E7E
:100B9000D12CE12CF12CA2DEEA81FB816E1B7F0BB4
:100BA000683E734088F0C114D104E104F10439F3C4
:100BB00051E0C51AD108E108F1086A817B816851CA
:100BC0007C4F7B836A83E7CFC114D104E104F10435
:100BD00011F7D5CFBCDE80E008DF2CE531E03B83A8
:100BE0002A8306E711E0EA81FB818491D7DE2A811E
:100BF0003B812F5F3F4F3B832A830217130799F7EF
:100C0000A6DE38DF1F8236DF60E080E0F5DE4F8150
:100C10008CEC90E0442311F084ED90E002DF5FEF74
:100C20006EE974E2515060407040E1F700C000008E
:100C300021DF8F81882309F449C01B821A82EA8050
:100C4000FB80F694FE2CEE24F794E7946A8180E012
:100C5000D3DE80E4CADEEA81FB813196FB83EA833E
:100C6000870100581F4FE016F10661F0FFEFEF1A01
:100C7000FF0AF701E558FD4F849190DEF4CF31E093
:100C80003F83C1CF64DE2A813B8128303105B9F62C
:100C90004CE752E0598B488BB12C1D861C8650E8DE
:100CA000B51609F499C286E3E0E6F0E0A6E9B0E003
:100CB00001900D928A95E1F7E0E6F0E08AE090E895
:100CC00081503696882329F093ABFACF198A188A77
:100CD000E3CF6FE380E88B196B1508F08B2D8093C1
:100CE0009200E0E6F0E090E080E08830910571F15C
:100CF0009C0135952795359527952F5F3F4F40816E
:100D0000518164817581AF81A11112C0421B530BC7
:100D1000518340836657714041F42B2D280F277073
:100D200021F423812F5F2370238301963696DDCF34
:100D3000240F351F3183208366577140B1F72B2D67
:100D4000280F277091F723812150EDCF8FB7F894AA
:100D50004091C1015091C2016091C3017091C401E1
:100D60004A8F5B8F6C8F7D8F8FBF688979897D8378
:100D70006C83F12C1B8A712C612C8C819D810097D6
:100D800009F41EC140E450E0BC01660D771D80E00F
:100D900091E030D2E0E4F1E020E411922A95E9F705
:100DA000E0E8F1E020E411922A95E9F7430130E40C
:100DB000830E911C40E650E05B834A831A86EA81E9
:100DC000FB8140815181481559050CF060C1A48117
:100DD000B581FD015490252C312CCA01820D931D43
:100DE000861597050CF453C131968491EA81FB81F5
:100DF0009281FD013296A490092F092E000C110B4F
:100E000073E0159507957A95E1F70A8BF0160CF4C7
:100E10003EC197709983282F200F2E83911102C015
:100E200021502E833E813F150CF431C146155705E4
:100E30000CF0CDC0F301E41BF50BF987E8875E1ACF
:100E4000A3019A01250D311D2815390514F0582CE0
:100E5000541A9A01261937093F872E87250D311D0F
:100E6000398F288FEA81FB81438147FD01C1082E1C
:100E7000000C990BB101FAD1642F6F70062E000C93
:100E8000770BF4D128853985280F391F44FFA2C07C
:100E9000C1010197BC01621B730B9B018FEF9FEF98
:100EA00099878887F42FF072EF2E8F2D801B45FFD6
:100EB00009C081E05981511101C080E08F0D6E8120
:100EC000681B862FA7FE0AC0220C331C220F331F7B
:100ED000E885F985EE0FFF1FF987E887082E000CDB
:100EE000990BB101C3D103968A0F9B1F820F931FE9
:100EF00099A388A32E853F8520503F4F6901B901F2
:100F0000650D711D7F8B6E8B88E090E0A9818A1B37
:100F100091099D8B8C8BEA2DE170EE8F40744F8F81
:100F20002E893F892C153D0509F4A2C03981311164
:100F300056C0512CA7FE09C0E8A1F9A131965490E2
:100F4000EE2019F0852DF0DC582EE8A1F9A144908F
:100F5000EE2019F0842DE8DC482EFA85F83040F0B8
:100F6000F601E058FF4F8081842111F02B852B8BF7
:100F70003E8D332331F0F601E058FF4F8081842904
:100F80008083A7FE06C0F6018081952D9095892368
:100F90008083FF8DFF2311F040944520F60180816E
:100FA000482A41926F0128A139A148855985240F0B
:100FB000351F39A328A3B4CF912C812C3401DDCE69
:100FC000E0E0F1E020E411922A95E9F7E3CE1986FA
:100FD000188637CFE1E0F0E0F987E88763CF08A112
:100FE00019A1EE2009F441C0020D131DFE81412C10
:100FF000512CFF16D4F4512CA7FE0CC0E8A1F9A186
:1010000031968491E11090DC582E098001C0550C76
:101010000A94EAF7E8A1F9A18491E11085DC482E51
:10102000098001C0440C0A94EAF7FA89FF150CF014
:1010300094CFA7FE0DC0F80131968491E11074DCC5
:1010400090E00C8802C0959587950A94E2F7582A9B
:10105000F8018491E11068DC90E00C8802C095955D
:1010600087950A94E2F7482A78CF02191309BECF70
:101070004E85842F90E0688D798D861797073CF414
:10108000805C9E4F21E0FC0120834F5FF2CF3A85C8
:101090003F5F3A874A815B814A5F5F4F5B834A8348
:1010A000323109F08CCE60E471E07B836A8380E0AA
:1010B00010E0EA81FB819191FB83EA83992309F493
:1010C0007AC0811106C06F2D812F860D95DC80E4DA
:1010D0008CDCEA81FB81E154F10980815FDC8B8546
:1010E0001F5F103431F7811132DC70E887169104EC
:1010F00009F064CF2C813D812115310521F0205864
:101100003F4F3D832C83F39438E0F31255CF4B8946
:10111000442309F456C080E48093930060E080E6A5
:101120006BDC8AEE90E07DDC2FB7F8948091C101F2
:101130009091C201A091C301B091C4012FBFBC0125
:10114000EA8DFB8D6E1B7F0B7B836A832C853D852F
:101150002617370714F47D876C8766E08EE64CDC33
:101160004AE066EF70E08A819B814DD086EF90E087
:1011700058DC84EF90E055DC67E08EE63DDC4AE029
:1011800066EF70E08C859D853ED086EF90E049DC6F
:1011900084EF90E046DC4A815B8142335105D4F410
:1011A0008FEC97E00197F1F700C000004F5F5F4FB1
:1011B0005B834A83F0CF882309F492CFC8DB80E0B9
:1011C0008FCF60E080E618DC80EF90E02ADC1092A0
:1011D0009300AACFB39463CD9F81913009F04FCD96
:1011E000AFEFE1E1FAE7A150E040F040E1F700C0E5
:1011F000000008CDFB01DC0102C005900D924150BA
:101200005040D8F70895BB274A3031F4992322F48F
:10121000BDE2909581959F4F01C0BB27FB015527EB
:10122000AA27880F991FAA1FA41710F0A41B839543
:101230005051B9F7A05DAA3308F0A95DA1930097BA
:1012400079F7B111B1931192CB0100C0DC01FC011F
:10125000672F71917723E1F7329704C07C916D93EA
:1012600070836291AE17BF07C8F308950024552715
:1012700004C0080E591F880F991F009729F0769512
:101280006795B8F37105B9F7802D952F0895F894F7
:02129000FFCF8E
:101292006400FC1076014800250176018C001C03D5
:1012A20076015A00340076014300200276012600BE
:1012B2000E00690056001F306900720002206900AA
:1012C2000A0000001E0000000000000000000000F4
:1012D200000000000000000000000000000000000C
:1012E20000000000000000000000000000000000FC
:1012F200000000000000000000000000537072694E
:101302007465730053707269746573202F7720625D
:1013120061636B67726F756E6400424F4F4D2100BF
:061322006F6B202020008B
:00000001FF
